:020000040800F2
:10000000005000207D1800087505000877050008DD
:10001000790500087B0500087D0500080000000048
:100020000000000000000000000000007F05000844
:100030008105000800000000830500088505000810
:10004000C5180008C5180008C5180008C51800081C
:10005000C5180008C5180008C5180008C51800080C
:10006000C5180008C5180008C5180008C5180008FC
:10007000C5180008C5180008C5180008C5180008EC
:10008000C5180008C5180008C5180008C5180008DC
:10009000C5180008C5180008C5180008C5180008CC
:1000A000C5180008C5180008C5180008C5180008BC
:1000B000C5180008C5180008C5180008C5180008AC
:1000C000C5180008C5180008C51800088D050008E7
:1000D000C5180008C518000851060008C518000812
:1000E000C5180008C5180008C51800080000000061
:1000F0000000000000000000000000000000000000
:0C01000000000000000000005FF808F1A3
:10010C0010B5054C237833B9044B13B10448AFF345
:10011C0000800123237010BD0C00002000000000A3
:10012C00201900080C4B43B10C4810B50C49AFF327
:10013C0000800C48036823B910BD0A48036833B922
:10014C007047094B002BF7D0BDE810401847064B01
:10015C00002BF5D0184700BF000000002019000844
:10016C00100000200C0000200000000010B588B02A
:10017C000023049305930693079303F1804303F53F
:10018C0004339A6942F020029A619A6902F02002C3
:10019C000192019A9A6942F004029A619A6902F0FA
:1001AC0004020292029A9A6942F008029A619B69CF
:1001BC0003F008030393039B0A4C01224FF47F5175
:1001CC00204601F077FA4FF47F53049311230593E3
:1001DC00012306930323079304A9204601F074F925
:1001EC0008B010BD000C014010B5104C104B236032
:1001FC00002363604FF48062A260E36002222261FC
:10020C00012262614FF40072A2610822E261236252
:10021C006362A3620A23E362204600F059FB226862
:10022C00536843F04003536010BD00BF3C000020F6
:10023C000030014010B50B4C0B4B236047F61223DA
:10024C0063600023A360E360236104226261A36105
:10025C00E361204600F098FC2268D36843F0200349
:10026C00D36010BD940000200044004030B591B024
:10027C002822002106A801F045FB002401940294D9
:10028C00039404940594012206924FF4803307934F
:10029C000A9202250D950E934FF4E0130F9306A8C6
:1002AC0000F0F8FD0F230193029503944FF4806343
:1002BC0004930594294601A801F012F811B030BD41
:1002CC0010B5002304E0FF219E4AD1540133DBB268
:1002DC00072BF8D99C4A002382F8803082F88130B1
:1002EC009A4A537113710223D37000F099FDFFF7F2
:1002FC00BDFFFFF73BFFFFF777FFFFF79BFF944B2B
:10030C001A68136843F040031360924B1A68D36861
:10031C0043F40053D36031E08B4B93F88020D2B27E
:10032C0093F88130DBB29A4228D0874B93F8801037
:10033C00C9B2894A117093F880200132D2B283F885
:10034C00802093F8802002F07F0283F880205B5C91
:10035C00DBB213F0800F2AD17C4A117911444B7017
:10036C0013790133DBB21371784B1A79D2B2DB7883
:10037C00DBB29A4202D30122744B5A71734B5B79F4
:10038C00002BC9D0714B5B79DBB2012BF6D16F4BD3
:10039C001B78DBB2902B47D0B02B00F0BB80802BAE
:1003AC0000F09180694B00225A711A71E6E703F054
:1003BC00F003B02B20D00BD8802B15D0902B2BD149
:1003CC00624B90221A700222DA7000221A71CBE76B
:1003DC00C02B19D0D02B1FD15C4BC0221A7001221C
:1003EC00DA7000221A71BFE7584B80221A70022271
:1003FC00DA7000221A71B7E7544BB0221A7002223D
:10040C00DA7000221A71AFE7504BC0221A70012229
:10041C00DA7000221A71A7E74C4BFF221A700222E5
:10042C00DA7000221A719FE7484B9B782BB3474B2D
:10043C005B78DBB2A3F12402D2B2302AB2D8B3F18A
:10044C00240218D4C2F3C70244490A70C2F107014E
:10045C00C9B243480170D200D2B29B1A243BDBB222
:10046C00404A1370374C625C012000FA03F322EA15
:10047C000303635496E70732E4E7344B5B78DBB253
:10048C00A3F12402D2B2302A8CD8B3F1240218D4AE
:10049C00C2F3C70231490A70C2F10701C9B2304830
:1004AC000170D200D2B29B1A243BDBB22D4A1370DE
:1004BC00244C625C012000FA03F31343DBB2635457
:1004CC0070E70732E4E7214B5B78DBB2A3F124023F
:1004DC00D2B2302A3FF666AFB3F1240218D4C2F37D
:1004EC00C7021E490A70C2F10701C9B21C4801704B
:1004FC00D200D2B29B1A243BDBB21A4A1370114CB5
:10050C00625C012000FA03F31343DBB2635449E746
:10051C000732E4E70D4B5B78DBB2402B7FF442AF44
:10052C000A4B9B78DBB23F2B05D8064A137843F075
:10053C004003137036E7034A137803F0BF031370BC
:10054C0030E700BF28000020D40000203400002039
:10055C003C000020940000203000002032000020DD
:10056C0031000020330000207047FEE7FEE7FEE775
:10057C00FEE770477047704708B500F063FC08BD94
:10058C0000B583B02C4B1B689A6812F0010F2ED06B
:10059C00DB68DBB28DF807309DF80730DBB2EF2B50
:1005AC0037D00CD9FB2B3AD014D9FD2B3DD0FE2BD8
:1005BC000BD1224BDB799B01214AD36017E0BF2B77
:1005CC001BD0DF2B1FD07F2B0CD04FF47F621C4B2A
:1005DC00DA600CE0F72BF8D1184B1B799B01184A09
:1005EC00D36004E0154B1B789B01154AD36012486D
:1005FC0000F0F2F803B05DF804FB104B5B789B0144
:10060C000F4AD360F3E70D4B9B789B010C4AD360E8
:10061C00EDE70A4BDB789B01094AD360E7E7074B10
:10062C005B799B01064AD360E1E7044B9B799B0104
:10063C00034AD360DBE700BF3C0000202800002009
:10064C00000C014008B50E4B1A68136813F0200F0C
:10065C0012D00C4B93F88110C9B25268D2B25A54D2
:10066C0093F881200132D2B283F8812093F8812053
:10067C0002F07F0283F88120014800F013FB08BDD3
:10068C0094000020D400002082B00E4B9A6942F0F6
:10069C0001029A619A6902F001020092009ADA69E9
:1006AC0042F08052DA61DB6903F080530193019BC5
:1006BC00054A536823F0E06343F00073536002B0C3
:1006CC00704700BF001002400000014000B587B029
:1006DC00002302930393049305930268184B9A42E8
:1006EC0002D007B05DF804FB03F560439A6942F44D
:1006FC0080529A619A6902F480520092009A9A6927
:10070C0042F008029A619B6903F008030193019B74
:10071C0006A9282341F8103D0A4800F0D5FE0A4AE4
:10072C00536843F0E06343F0010353600022114629
:10073C00232001F023F8232001F052F8D1E700BF69
:10074C0000300140000C01400000014030B587B082
:10075C000023029303930493059302681B4B9A4264
:10076C0001D007B030BD03F5E633DA6942F400324C
:10077C00DA61DA6902F400320092009A9A6942F066
:10078C0004029A619B6903F004030193019B042307
:10079C00029302230393032305930D4D02A92846CC
:1007AC0000F092FE082302930024039404940DEBB2
:1007BC000301284600F088FE22460121262000F085
:1007CC00DDFF262001F00CF8CBE700BF0044004011
:1007DC00000801407047000010B584B00446026860
:1007EC005168936803F0410001284FD013F0020FB9
:1007FC0002D011F0800F50D113F0600F50D011F0D7
:10080C00200F4DD013F0400F0FD094F85100C0B210
:10081C00032847D0606D40F0040060650020019013
:10082C00D068019090680190019813F0200F0CD0C3
:10083C00636D43F001036365002303939368039393
:10084C00136823F040031360039B636D43B322686A
:10085C00536823F0E0035360012384F8513011F006
:10086C00030F27D02268536823F003035360E36C13
:10087C0023B1124A5A63E06C00F022FFA36C7BB1E7
:10088C000E4A5A63A06C00F01BFF09E011F0400FF8
:10089C00ACD0236C2046984702E0636C2046984706
:1008AC0004B010BD00230293D368029393680293A3
:1008BC00029BF5E72046FFF78DFFF1E7CD08000816
:1008CC0008B5406A0023C387C386FFF783FF08BDC2
:1008DC0000283CD010B504460023836290F85130B8
:1008EC00002B31D0022384F851302268136823F096
:1008FC004003136022686368A1680B43E1680B43F3
:10090C0021690B4361690B43A16901F400710B432D
:10091C00E1690B43216A0B43A16A0B431360226804
:10092C00638B03F00403616A0B4353602368E26A30
:10093C001A612268D36923F40063D36100206065D7
:10094C00012384F8513010BDFFF7C0FECAE7012027
:10095C0070470268D36823F49073D36002685369BC
:10096C0023F001035361202380F83A30704790F84C
:10097C003930DBB2212B01D0022070478368B3F5EC
:10098C00805F17D00268036A591C01621B785360A0
:10099C00C38C9BB2013B9BB2C384DBB90268D368A6
:1009AC0023F08003D3600268D36843F04003D36024
:1009BC0000207047036A02681B88C3F30803536066
:1009CC0003691BB9036A02330362E1E7036A01336B
:1009DC000362DDE7002070472DE9F0470546026809
:1009EC00136923F44053C1680B4313618368026994
:1009FC001343426913430168CA6822F4B05222F0CF
:100A0C000C021343CB600268536923F44073816971
:100A1C000B435361D0F80080594B984557D000F0E8
:100A2C0033FD00EB800000EB80006C68A400B0FB91
:100A3C00F4F4544FA7FB04346409260100F024FDA0
:100A4C0000EB800000EB80006C68A400B0FBF4FAB3
:100A5C0000F01AFD00EB800000EB80006C68A40035
:100A6C00B0FBF4F4A7FB043464094FF0640909FBF0
:100A7C0014A424013234A7FB0434640904F0F004F8
:100A8C00344400F001FD00EB800000EB80006E6848
:100A9C00B600B0FBF6F600F0F7FC00EB800000EBC4
:100AAC0080006B689B00B0FBF3F0A7FB00304009A3
:100ABC0009FB10694FEA091909F13209A7FB09373B
:100ACC00C7F343172744C8F80870BDE8F08700F057
:100ADC00EBFC00EB800000EB80006C68A400B0FB2A
:100AEC00F4F4284FA7FB04346409260100F0DCFC65
:100AFC0000EB800000EB80006C68A400B0FBF4FA03
:100B0C0000F0D2FC00EB800000EB80006C68A400CD
:100B1C00B0FBF4F4A7FB043464094FF0640909FB3F
:100B2C0014A424013234A7FB0434640904F0F00447
:100B3C00344400F0B9FC00EB800000EB80006E68E0
:100B4C00B600B0FBF6F600F0AFFC00EB800000EB5B
:100B5C0080006B689B00B0FBF3F3A7FB03235B09DE
:100B6C0009FB13694FEA091909F13209A7FB093787
:100B7C00C7F343172744C8F80870BDE8F08700BFD7
:100B8C00003801401F85EB5158B310B5044690F85E
:100B9C0039300BB3242384F839302268D36823F41A
:100BAC000053D3602046FFF717FF2268136923F424
:100BBC00904313612268536923F02A03536122681E
:100BCC00D36843F40053D3600020E063202384F8FF
:100BDC00393084F83A3010BD80F83830FFF7B6FD64
:100BEC00D8E701207047704708B50168CB6823F03F
:100BFC004003CB60202380F83930FFF7F4FF00204E
:100C0C0008BD704708B590F83A30DBB2222B01D002
:100C1C00022008BD8368B3F5805F0FD003690BBB5E
:100C2C00836A5A1C8262026852681A70C38D9BB226
:100C3C00013B9BB2C385F3B1002008BD826A0369F6
:100C4C0043B903685B68C3F308031380836A0233F8
:100C5C008362EBE703685B68DBB21380836A013362
:100C6C008362E3E7826A531C836203685B6803F068
:100C7C007F031370DAE70268D36823F02003D36094
:100C8C000268D36823F48073D3600268536923F03D
:100C9C0001035361202380F83A30FFF7B2FF0020A4
:100CAC0008BD704710B5044602681368D1685269D4
:100CBC0013F00F0005D113F0200F02D011F0200F0C
:100CCC0053D1002867D012F0010202D111F4907FA9
:100CDC0061D013F0010F06D011F4807F03D0E06BCC
:100CEC0040F00100E06313F0040F04D01AB1E06B84
:100CFC0040F00200E06313F0020F04D01AB1E06B75
:100D0C0040F00400E06313F0080F04D01AB1E26B5A
:100D1C0042F00802E263E26B002A48D013F0200F85
:100D2C0002D011F0200F24D123685B6903F040033B
:100D3C00E26B12F0080F00D13BB32046FFF709FE1F
:100D4C0023685A6912F0400F1BD05A6922F04002F6
:100D5C005A61636B8BB11A4A5A63606B00F0B0FC3A
:100D6C0028B3606B436B984710BD2046FFF74AFFD2
:100D7C0010BD2046FFF746FFD6E72046FFF791FF50
:100D8C0010BD2046FFF78DFF10BD2046FFF789FFF1
:100D9C000023E36310BD13F0800F02D011F0800F1D
:100DAC0006D113F0400F02D011F0400F04D110BD4A
:100DBC002046FFF7DCFD10BD2046FFF715FFF6E7D8
:100DCC00D10D000808B5406A0023C385C384FFF722
:100DDC0068FF08BD10B504460E4B18784FF47A73B3
:100DEC00B3FBF0F30C4A1068B0FBF3F000F004FD19
:100DFC0068B90F2C01D9012010BD002221464FF0FB
:100E0C00FF3000F0BBFC054B1C60002010BD012026
:100E1C0010BD00BF000000200800002004000020CE
:100E2C0008B5074A136843F010031360032000F061
:100E3C0093FC0020FFF7CEFFFFF726FC002008BD37
:100E4C0000200240034A1168034B1B780B441360CB
:100E5C00704700BF5801002000000020014B1868AB
:100E6C00704700BF5801002082B0084B1B68084A2D
:100E7C00A2FB03235B0A00FB03F0019000BF019B64
:100E8C005A1E0192002BF9D102B0704708000020C5
:100E9C00D34D621070B582B00446036813F0010F95
:100EAC003DD0AC4B5B6803F00C03042B2ED0A94B4C
:100EBC005B6803F00C03082B23D06368B3F5803F09
:100ECC0051D0002B55D103F1804303F504331A683C
:100EDC0022F480321A601A6822F480221A60636845
:100EEC00002B60D0FFF7BAFF05469A4B1B6813F432
:100EFC00003F14D1FFF7B2FF401B6428F5D9032043
:100F0C00AFE1944B5B6813F4803FD6D0914B1B68D8
:100F1C0013F4003F03D06368002B00F09F8123681B
:100F2C0013F0020F65D08B4B5B6813F00C0F4ED097
:100F3C00884B5B6803F00C03082B43D02369002B10
:100F4C0079D00122844B1A60FFF788FF0546814B4C
:100F5C001B6813F0020F65D1FFF780FF401B0228BE
:100F6C00F5D903207DE17B4A136843F48033136089
:100F7C00B5E7B3F5A02F09D0764B1A6822F480326E
:100F8C001A601A6822F480221A60A8E703F18043E1
:100F9C00A3F53C331A6842F480221A601A6842F4B2
:100FAC0080321A609BE7FFF759FF0546694B1B68B7
:100FBC0013F4003FB3D0FFF751FF401B6428F5D961
:100FCC0003204EE1634B5B6813F4803FB6D1614B59
:100FDC001B6813F0020F04D02369012B01D00120F0
:100FEC003FE15C4A136823F0F803616943EAC103EB
:100FFC001360236813F0080F32D0A369002B6ED056
:10100C000122564B1A60FFF729FF0546514B5B6ACC
:10101C0013F0020F21D1FFF721FF401B0228F5D955
:10102C0003201EE14B4A136823F0F803616943EA7D
:10103C00C1031360DDE70022474B1A60FFF70EFF78
:10104C000546444B1B6813F0020FD2D0FFF706FF86
:10105C00401B0228F5D9032003E10120FFF704FF10
:10106C00236813F0040F00F099803A4BDB6913F0FE
:10107C00805F46D1374BDA6942F08052DA61DB6926
:10108C0003F080530193019B0125354B1B6813F42E
:10109C00807F38D0E368012B49D0002B4DD103F170
:1010AC00804303F504331A6A22F001021A621A6AA9
:1010BC0022F004021A62E368002B5DD0FFF7CEFE2B
:1010CC000646244B1B6A13F0020F66D1FFF7C6FECF
:1010DC00801B41F288339842F3D90320C1E00022EF
:1010EC001E4B1A60FFF7BAFE05461A4B5B6A13F0EB
:1010FC00020FB5D0FFF7B2FE401B0228F5D9032032
:10110C00AFE00025C1E7164A136843F480731360FF
:10111C00FFF7A4FE0646124B1B6813F4807FB9D16F
:10112C00FFF79CFE801B6428F5D9032099E0094A3F
:10113C00136A43F001031362BDE7052B12D0054B74
:10114C001A6A22F001021A621A6A22F004021A6266
:10115C00B1E700BF0010024000004242800442424E
:10116C0000700040414B1A6A42F004021A621A6A7B
:10117C0042F001021A629EE7FFF770FE06463B4BF7
:10118C001B6A13F0020F08D0FFF768FE801B41F2B8
:10119C0088339842F3D9032063E0E5B9E369002B67
:1011AC005ED0324A526802F00C02082A5BD0022B45
:1011BC0017D000222E4B1A60FFF750FE04462B4B23
:1011CC001B6813F0007F47D0FFF748FE001B022876
:1011DC00F5D9032045E0254AD36923F08053D36128
:1011EC00DCE70022224B1A60FFF738FE05461F4B46
:1011FC001B6813F0007F06D0FFF730FE401B02285F
:10120C00F5D903202DE0236AB3F5803F1AD0174996
:10121C004B6823F47413226A606A024313434B60D5
:10122C000122134B1A60FFF719FE04460F4B1B6883
:10123C0013F0007F0ED1FFF711FE001B0228F5D929
:10124C0003200EE0094A536823F40033A1680B43D2
:10125C005360DCE7002004E0002002E0012000E005
:10126C00002002B070BD0120FBE700BF001002405F
:10127C006000424210B586B0154C94E80F000DF199
:10128C00180E0EE90F00238AADF80430114B5B6881
:10129C0003F00C02082A18D1C3F38342724412F8EB
:1012AC00102C13F4803F03D10B4800FB02F00DE02F
:1012BC00084B5B68C3F34043734413F8143C074872
:1012CC0000FB02F0B0FBF3F000E0044806B010BDE8
:1012DC00381900080010024000093D0000127A0085
:1012EC00624B1B6803F007038B420CD25F4A1368F6
:1012FC0023F007030B431360136803F007039942B1
:10130C0001D00120704770B5036813F0020F17D09D
:10131C0013F0040F04D0564A536843F4E06353604F
:10132C00036813F0080F04D0514A536843F4605318
:10133C0053604F4A536823F0F0038468234353608F
:10134C000D460446036813F0010F52D04368012B7D
:10135C0023D0022B28D0464A126812F0020F00F05C
:10136C00828043494A6822F0030213434B60FFF723
:10137C0075FD06466368012B1DD0022B2AD03C4B11
:10138C005B6813F00C0F34D0FFF768FD801B41F243
:10139C0088339842F3D9032070BD354A126812F491
:1013AC00003FDED1012070BD314A126812F0007F7F
:1013BC00D7D1012070BD2E4B5B6803F00C03042BBE
:1013CC0017D0FFF74BFD801B41F288339842F2D9BE
:1013DC00032070BD264B5B6803F00C03082B08D070
:1013EC00FFF73CFD801B41F288339842F2D9032071
:1013FC0070BD1E4B1B6803F007039D420CD21B4AA9
:10140C00136823F007032B431360136803F00703DF
:10141C009D4201D0012070BD236813F0040F06D04B
:10142C00134A536823F4E063E1680B435360236869
:10143C0013F0080F07D00E4A536823F46053216948
:10144C0043EAC1035360FFF715FF094B5B68C3F315
:10145C000313084AD35CD840074B18600020FFF7F1
:10146C00B9FC002070BD012070BD00BF00200240FF
:10147C00001002404C19000808000020014B1868AD
:10148C00704700BF0800002008B5FFF7F7FF044BBA
:10149C005B68C3F30223034AD35CD84008BD00BF8A
:1014AC00001002405C19000808B5FFF7E7FF044B79
:1014BC005B68C3F3C223034AD35CD84008BD00BFAA
:1014CC00001002405C190008F0B583B000263446C9
:1014DC0071E0002D00F0A180012D00D1CE68FF2B12
:1014EC0000F2AF808646FF2B00F2AE80A500DEF83E
:1014FC0000200F27AF4022EA070206FA05F52A431F
:10150C00CEF800204A6812F0805F53D0634A956988
:10151C0045F001059561926902F001020192019A70
:10152C00A508AF1C5E4A52F8272004F00307BF0041
:10153C004FF00F0E0EFA07FE22EA0E02DFF870E1F2
:10154C00704500F088800EF5806E704500F0868046
:10155C000EF5806E704500F084800EF5806E70453F
:10156C0076D04FF0040E0EFA07F73A4302354C4F83
:10157C0047F825204A6812F4803F75D0494D2A68F7
:10158C001A432A604A6812F4003F73D0454D6A68CA
:10159C001A436A604A6812F4801F71D0414DAA68E0
:1015AC001A43AA604A6812F4001F6FD03D4DEA68D6
:1015BC001343EB6001340F2C6ED80122A2400B6850
:1015CC0013409A42F6D14D68122D30D00BD8022D13
:1015DC002AD07FF67EAF032D2FD0112D7FF47FAF55
:1015EC00CE6804367BE7304FBD4216D00CD92F4F56
:1015FC00BD4212D007F58037BD420ED0A7F580173B
:10160C00BD427FF46CAF08E0A7F58017BD4204D053
:10161C0007F58037BD427FF462AF8D687DB1012D37
:10162C0008D0426108265AE7CE68083657E7CE68DC
:10163C000C3654E70261082651E700264FE70426D2
:10164C004DE700F1040E4EE7A4F10805AD004EE79E
:10165C004FF0030E87E74FF0000E84E74FF0010EBA
:10166C0081E74FF0020E7EE70E4D2A6822EA030254
:10167C002A6087E70B4D6A6822EA03026A6089E7F1
:10168C00084DAA6822EA0302AA608BE7054DEA68B6
:10169C0022EA0303EB608DE703B0F0BD00100240BB
:1016AC000000014000040140000021100000311036
:1016BC000008014012B909040161704701617047CB
:1016CC0008B590F82130022B03D00423836301204A
:1016DC0008BD0268136823F00E03136002681368D8
:1016EC0023F0010313600368194A934214D0143297
:1016FC0093421FD0143293421ED0143293421ED008
:10170C00143293421ED01432934202D04FF08072A6
:10171C0003E04FF4801200E001220E4B5A600123CB
:10172C0080F82130002380F82030436B6BB1984750
:10173C00002008BD1022F0E74FF48072EDE74FF463
:10174C008052EAE74FF48032E7E7002008BD00BF83
:10175C000800024000000240074AD36823F4E0630B
:10176C001B041B0C000200F4E060184340F0BF6047
:10177C0040F40030D060704700ED00E030B4164B00
:10178C00DB68C3F30223C3F10704042C28BF042431
:10179C001D1D062D17D9033B012505FA04F4013C48
:1017AC002140994005FA03F3013B134019430028EB
:1017BC000BDB0901C9B200F1604000F5614080F813
:1017CC00001330BC70470023E6E700F00F0009015E
:1017DC00C9B2024B1954F4E700ED00E014ED00E03F
:1017EC00420900F01F00012303FA00F0014B43F8FB
:1017FC002200704700E100E00138B0F1807F0AD28E
:10180C00064B5860F021064A82F82310002098609D
:10181C0007221A6070470120704700BF10E000E0FB
:10182C0000ED00E00F4B1A6842F001021A60596893
:10183C000D4A0A405A601A6822F0847222F48032EF
:10184C001A601A6822F480221A605A6822F4FE0286
:10185C005A604FF41F029A604FF00062034B9A607B
:10186C00704700BF001002400000FFF800ED00E0E0
:10187C00002103E00B4B5B58435004310A480B4BDF
:10188C0042189A42F6D30A4A02E0002342F8043B7B
:10189C00084B9A42F9D3FFF7C5FF00F00FF8FEF79B
:1018AC000FFD70476C190008000000200C00002090
:1018BC000C0000205C010020FEE7000070B5002544
:1018CC000C4E0D4CA41BA410A54209D100F022F81B
:1018DC0000250A4E0A4CA41BA410A54205D170BDCC
:1018EC0056F8253098470135EEE756F825309847DD
:1018FC000135F2E76419000864190008641900083E
:10190C006819000803460244934200D1704703F85B
:10191C00011BF9E7F8B500BFF8BC08BC9E46704740
:0C192C00F8B500BFF8BC08BC9E46704730
:1019380002030405060708090A0B0C0D0E0F101008
:101948000102000000000000000000000102030482
:0C1958000607080900000000010203045B
:041964003101000845
:041968000D01000865
:0C196C00010000001000000000A24A046E
:040000050800187D5A
:00000001FF
